:03000000020828CB
:0C082800787FE4F6D8FD75817F02086F30
:101085007E00D3EF9400EE940040147D787C00ED53
:0F1095001D70011CED4C70F7EF1F70E61E80E31D
:0110A4002229
:1011DA007580FFC2A6D2A5D2A7AF80C2A7EF20E72B
:0111EA00F60E
:0111EB0022E1
:10119E00AE071211DAC2A6C2A5C2A78E80D2A700D0
:0411AE0000C2A722B2
:1011B200AE071211DAD2A6C2A5C2A78E80D2A700AC
:0411C20000C2A7229E
:1011EC00ED7004AE078004EF2440FEEE4480FF0255
:0211FC00119E42
:100FF4008B7D8A7E897F1211ECAB7DAA7EA97F123C
:10100400018E6013057FE57F7002057E14F91201DD
:081014008EFF1211B280E222EE
:050006007F0102119EC4
:05001E007F0C02119EA1
:050026007F0F02119E96
:1011C6007F3812119E7F0C12119E7F0612119E7F90
:0411D6000102119E63
:0A123100AC031211ECAF040211B27D
:10114000201811271200000200000000000000001B
:0A1150000000000000000000000095
:100E8900C2B500C2B600D2B500EF25E04480FFE448
:100E9900FEEF1392B4EFC313FFD2B600C2B6000E31
:100EA900BE08EEE4FEED1392B4EDC313FDD2B60015
:0A0EB900C2B6000EBE08EEC2B5007E
:010EC300220C
:100C5500E4FEC2B500C2B600D2B500EF25E044817E
:100C6500FFE4FDEF1392B4EFC313FFD2B600C2B693
:100C7500000DBD08EE00E4FDA2B4E433FFC4333338
:100C8500335480FCEEC3134CFED2B600C2B6000D41
:100C9500BD08E5C2B500D2B600C2B400D2B400AFFB
:010CA5000648
:010CA600222B
:060A86008B7C8A7D897E55
:100A8C00E4F57F7FBEFEFBFAC2B500C2B600D2B55C
:100A9C0000FDEF1392B4EEC313FEEF13FFD2B600BA
:100AAC00C2B6000DBD08EBE4F57FAB7CAA7DA97E38
:100ABC00857F827583001201A77A00FBE4FDEB139E
:100ACC0092B4EAC313FAEB13FBD2B600C2B6000D14
:0E0ADC00BD08EB00057FE57FB408CFC2B50072
:010AEA0022E9
:060AEB008B7D8A7E897FED
:100AF100E4FF7EBFC2B500C2B600D2B500FDEE1361
:100B010092B4EEC313FED2B600C2B6000DBD08EE1C
:100B110000E4FE7D01ED601030B4024207D2B60060
:100B2100C2B6ED25E0FD80EDAB7DAA7EA97F8E8268
:100B3100758300EF1201E6E4FF000EBE08D5C2B5D1
:0A0B410000D2B600C2B400D2B40026
:010B4B002287
:060BAA008B728A7389744E
:100BB0007B007A007975120AEBE4257BFFE4342090
:100BC000AB72AA73A9748FF0120269AB72AA73A9EF
:100BD00074900002E5791201E6900003E5781201B5
:100BE000E6900004E5771201E6900005E576120133
:100BF000E6900006E5751201E6900007E57A02012D
:010C0000E60D
:100E0C009000061201A7F5749000051201A7F57564
:100E1C009000041201A7F5769000031201A7F57754
:100E2C009000021201A7F5789000071201A7F5793E
:100E3C0012023EF57AE4F57BFB7A007974020A869D
:10110400C2B5C2B6E4FF120C55EF30E710E4FD7F20
:0D11140007120E897BFF7A117940120E0C34
:0111210022AB
:1008B40012023EFDACF0ECC4F854F0C8EDC4540F81
:1008C40048540F24309000081201E6ED540F2430F0
:1008D4009000091201E690000A742D1201E69000BE
:1008E400021201A7C4540F243090000B1201E690A9
:1008F40000021201A7540F243090000C1201E6905C
:10090400000D742D1201E69000031201A7C4540FC8
:10091400243090000E1201E69000031201A7540F38
:0F092400243090000F1201E6900010E40201E66B
:100933009000041201A7C4540F2430900011120137
:10094300E69000041201A7540F2430900012120104
:10095300E6900013743A1201E69000051201A7C451
:10096300540F24309000141201E69000051201A7E1
:10097300540F24309000151201E6900016743A12B9
:1009830001E69000061201A7C4540F24309000170B
:100993001201E69000061201A7540F2430900018AC
:0A09A3001201E6900019E40201E6DB
:0D10A500C2AFC2B77F321210B2D2B77F06C1
:1010B200E4FEEEC39F500B00000000000000000E93
:0210C20080F0BC
:0110C4002209
:1010C500E4FDAB07C2AFC2B70000EB1392B77F06D2
:0F10D5001210B2D2B7EBC313FB0DBD08E9D2AFB7
:0110E40022E9
:100FCA00C2AF7C01EC601EC2B70000D2B70000308D
:100FDA00B70442058004ECF452057F061210B2EC05
:090FEA0025E0FC80DFD2AFAF0569
:010FF30022DB
:060DCB008B7D8A7E897F0A
:100DD100D2061210A5A2B7920630B7FDD2AF2006F7
:100DE100267FCC1210C57FBE1210C5120FCAAB07E9
:100DF100120FCAEFFE7C00E42BFFEC3EAB7DAA7E16
:0A0E0100A97F8FF0120269A206B368
:010E0B0022C4
:1010E500D2061210A5A2B7920630B7FDD2AF2006E0
:0E10F5000A7FCC1210C57F441210C5A206B3AC
:0111030022C9
:10121000D2A0D2A100000000C2A000000000C2A124
:0112200022AB
:10118900C2A1C2A000000000D2A100000000D2A0AC
:0511990000000000222F
:050EC4001212107FA0D6
:100EC9007E80EE601B5F7004C2A08002D2A0EEC3D8
:100ED90013FE00000000D2A100000000C2A180E2C0
:100EE900D2A000000000D2A1A2A09206000000003A
:050EF900C2A1A206B336
:010EFE0022D1
:100F38007E80D2A0EE601D00000000D2A130A00487
:100F480042078004EEF45207EEC313FE00000000CF
:100F5800C2A180E0C2A000000000D2A100000000F1
:020F6800C2A124
:010F6A002264
:100F6B007E80D2A0EE601D00000000D2A130A00454
:100F7B0042078004EEF45207EEC313FE000000009C
:100F8B00C2A180E0D2A000000000D2A100000000AE
:020F9B00C2A1F1
:010F9D002231
:1011FE00AC07120EC4AF04120EC9AF05120EC9020F
:02120E00118944
:02115A00AD07DF
:10115C00120EC4AF05120EC91212107FA1120EC9C5
:06116C00120F6B02118955
:100CF5008B728A738974120EC4400512118980F6AD
:100D0500AF05120EC91212107FA1120EC9E576D3D6
:100D150094014019120F38AB720574E574AA73700B
:100D250002057314F9EF1201D4157680E0120F6BEA
:0D0D3500AB72AA73A974EF1201D4021189E8
:100D42008B728A738974E576D394004038120EC48C
:100D5200400512118980F6AF05120EC9E576D394CB
:100D620000401DAB720574E574AA7370020573141A
:100D7200F912018EFF120EC915760DED540770DCC3
:060D820012118980C1225C
:1002EE00543A002743007765656B004D75740044E2
:1002FE006973005541520045575200455244005310
:10030E004554004573466F476D4475406C43720704
:10031E006515640969163019780D790C3118325E3D
:10032E003308341C355A36423752384A39F2F3F50F
:10033E00F5F6F7F8F9F9FAFAFBFBFCFCFCFDFDFD0E
:10034E00FDFEFEFEFEFEFEFEFF42C117B6D0D1B68A
:10035E0021E18CD868E95B8FEE446BB4F42D4777BE
:10036E00A2B6DAFA1606020305020103020205021C
:10037E000201030206020105020106020403020243
:10038E000502010602010502020302020102010634
:10039E00010105020103020102020402020303022B
:1003AE000105020205020106020103020202020217
:1003BE000102040502030302010202010102010609
:0B03CE00010101020105010600000012
:10112200C10102610000C102C184C1800124000129
:0D1132002200C103016000012600015B01E5
:0B000E00EF1FAC0670011E4C70F622C4
:100EFF00E4F572300332C203F572E57225E0241176
:100F0F00F582E43403F583E493B55E13E57225E0CF
:100F1F002412F582E43403F583E493FF02057B0585
:080F2F0072E572C3941540D273
:010F37002297
:10117200D2B2758911E4F58CF58AD2ABD2AFC2A98D
:07118200C28CD288D2A82222
:10104100E4F58CF58AD28C30B207E58CD39440401C
:10105100F6C28CAF8CEFFEAD8A7C00E42DFFEC3E36
:02106100FE226D
:10106300E4F58CF58AD28C20B207E58CD39440400A
:10107300F6C28CAF8CEFFEAD8A7C00E42DFFEC3E14
:02108300FE224B
:030003000204B143
:1004B100C0E0C0D075D000C000C001C002C003C000
:0704C10004C005C006C007DE
:1004C800E4FB121063C3EF9458EE941B4009D3EF7A
:1004D8009410EE94274005C289020566121041C3A4
:1004E800EF94ACEE940D4009D3EF9488EE9413404A
:1004F80004C2898069E4FA7B00121063C3EF943662
:10050800EE94014009D3EF94D0EE94024004C289DE
:10051800804C121041D3EF9436EE9401400EEF94C4
:10052800D0EE94025006E9C313F9801ED3EF941459
:10053800EE94054011EF9408EE94075009E9C313AF
:10054800F94301808004C28980140BBB08AB745C3A
:0E0558002AF8A6010AEA6404709DD203C28943
:10056600D007D006D005D004D003D002D001D000E9
:05057600D0D0D0E032FE
:020CA7008F6656
:100CA900200146E4F567E567C395665039E4F56BBD
:100CB900F56AF569F568E47F407E1FFDFCAB6BAA18
:100CC9006AA969A868C31202885017E56B2401F55F
:100CD9006BE4356AF56AE43569F569E43568F56800
:0B0CE90080D4056780C0C28E22C28E3E
:010CF40022DD
:100C0100E4F56520014DD2AFF564F565755B01E54D
:100C11005B6040E5649003749375F007A4FFE5649D
:100C2100900373932F14F56590033B93F560E5658D
:100C310090035793F526E56490037593F55B740370
:100C41002564F56485608D85268BD28EAF5B120C91
:030C5100A780BCBD
:010C5400227D
:03000B00020019D7
:0100190032B4
:03001B00021221AD
:1012210020020CC28EB29585608D85268BD28E32BE
:03002300020E4C7E
:0B0E4C00C0E0C0D075D000C000C0079F
:100E5700309806C298AF998F9930991DC299300082
:100E6700047438800274522522F8E6F5990522E5C4
:090E770022D39409400375220006
:090E8000D007D000D0D0D0E03240
:03002B000203D9F4
:1003D900C0E0C0F0C083C082C0D075D000C000C0EA
:0D03E90001C002C003C004C005C006C0076B
:1003F60075CB3C75CAB00521E521640A6003020489
:1004060085F521C2CF120EFFE523707312001E7B05
:10041600007A007927120BAA7B007A007927120846
:10042600B47B007A0079271209337B007A00792F92
:100436007D01E4FF120FF47B007A0079387D017F9D
:1004460008120FF4E4FD7F0B1211ECE52E540F2475
:1004560030FF1211B22004133002107B007A0079AB
:1004660038757608E4FD120D42801430021130040E
:100476000E7B007A007952757608E4FD120CF505BC
:1004860024E524B4140AE52370031209AD7524008B
:10049600D007D006D005D004D003D002D001D000BA
:0B04A600D0D0D082D083D0F0D0E03264
:1009AD00E4F574F575FB7A007974120DCBE433F52B
:1009BD007B1210E5E433F57CE575AE747804CEA2B8
:1009CD00E713CE13D8F8F5758E74857461F562FF53
:1009DD007C007D0A120208EF2430F576AE74AF75F7
:1009ED007C007D0A120208ED2430F57775782775A5
:1009FD007943E4F57A7BFF7A0279EEFDFF120FF46D
:0D0A0D007B007A007976E4FD7F02020FF491
:100D88001200067BFF7A0279EEE4FDFF120FF47B76
:100D9800FF7A0279F1E4FD7F04120FF47BFF7A02F7
:100DA80079F4E4FD7F07120FF412001E7BFF300177
:100DB800067A0279F980047A0279FDE4FD7F0D1242
:030DC8000FF42203
:10101C00756418756511756627756712E4F5689027
:10102C0000061201A7F5697B007A007964757606D3
:05103C007D30020D42B1
:10079700E4F563D288D2A8D2AFD2B21211C6121131
:1007A700041210E57B007A007941120BAA7B007ACC
:1007B70000794112101C75CB3C75CAB0D2ADD2AFCF
:1007C700D2CA121172120D88E52CC4540F701EE59F
:1007D7002C540F7018E52DC4540F7011E52D540FCC
:1007E700D3940150082001E0120C0180DBAE61AF09
:1007F700627C007D0A120208C3EF9402EE648094C3
:100807008040C5AE61AF627C007D0A120208C3ED6D
:100817009408EC6480948040AF2001AC120C0180F6
:01082700A729
:10057B008F73E573C39430400AE573D394395003FA
:10058B0002002EE573B4720302062FE573B46C03FD
:10059B000206E3E573B46F03020B4CE573646D70F5
:1005AB001FE5237018B2017BFF3001067A0279F93F
:1005BB0080057A0279FDE4FD7F0D020FF4020A1A21
:1005CB00E5736479702CB2023002087BFF7A0379F1
:1005DB000180163001097BFF7A0279F9E4800A2049
:1005EB00010D7BFF7A0279FDE4FD7F0D120FF40202
:1005FB000F9EE5736478702420040B3002087BFF98
:10060B007A037905800D30041030020D7BFF7A03DD
:10061B007909E4FD7F0D120FF4B20422E573B46582
:04062B0002B20022F5
:100B4C00E5237030752301852B45852C46852D4773
:100B5C00852E48852741852842852943852A447B53
:100B6C00FF7A03790DFD7F0D120FF4752514120613
:100B7C002F020026E52364017023F523FB7A00790C
:100B8C0041120E0C12001E7BFF3001067A0279F91D
:0E0B9C0080047A0279FDE4FD7F0D120FF42231
:100A1A00E4F52312001E1200067BFF7A0279F4E441
:100A2A00FD7F07120FF47B007A0079271208B47B46
:100A3A00007A0079271209337B007A00792F7D0129
:100A4A00E4FF120FF47B007A0079387D017F0812E7
:100A5A000FF4E4FD7F0B1211ECE52E540F2430FF46
:100A6A001211B27BFF3001067A0279F980047A0208
:0C0A7A0079FDE4FD7F0D120FF40209ADC0
:100F9E00300218758921759850E4F587758DE685B0
:100FAE008D8BD2AFC2ABD2ACD28E22758911E4F545
:0C0FBE008DF58BD2AFD2ABC2ACC28E223C
:10062F00E523640160030206E2E525B40C004003F4
:10063F000206D9900649F828287302066D0206763D
:10064F0002067F02068802069102069A0206A3029C
:10065F0006AC0206B50206BE0206C70206D0752515
:10066F00017D01E4FF80697525027D017F018060B6
:10067F007525037D017F0380577525047D017F0458
:10068F00804E7525057D017F0680457525067D0108
:10069F007F07803C7525077D017F0880337525080E
:1006AF007D017F09802A7525097D017F0B802175CA
:1006BF00250A7D017F0C801875250B7D017F0E802B
:1006CF000F75250C7D017F0F8006E4F525FD7F0B4F
:0406DF001211EC22E6
:1006E300E52364016003020796E525B40C0040038B
:1006F30002078C9006FDF828287302072102072AB7
:1007030002073202073B02074402074D0207560263
:10071300075F02076802077102077A0207837525DC
:100723000C7D017F0F8069E4F525FD7F0B806175EA
:1007330025017D01E4FF80587525027D017F01803D
:100743004F7525037D017F0380467525047D017F59
:1007530004803D7525057D017F0680347525067D62
:10076300017F07802B7525077D017F088022752572
:10077300087D017F0980197525097D017F0B801094
:1007830075250A7D017F0C800775250B7D017F0E82
:040793001211EC2231
:02002E008F74CD
:10003000E4F575E57424D0F575D394094003020105
:100040008DE5236401600302018AE525B40C0040BC
:100050000302017990005BF828287302007F0200F8
:10006000980200B70200CE0200E40200F502010A85
:1000700002011A02012F02013F020154020164E54C
:1000800075D394074003757507E54854F04575F539
:1000900048AB74E4FD020150E57575F010A4FFE56E
:1000A00042540FFDE54145F0F541ED4FF542AB748B
:1000B0007D01E4FF020187E54254F0FFE541F5418F
:1000C000EF4575F542AB747D017F01020187E5754F
:1000D000C454F0FFE543540F4FF543AB747D017FEB
:1000E00003020187E54354F04575F543AB747D0188
:1000F0007F04020187E575C454F0FFE544540F4FB7
:10010000F544AB747D017F06807DE54454F0457570
:10011000F544AB747D017F07806DE575C454F0FF35
:10012000E545540F4FF545AB747D017F088058E5D8
:100130004554F04575F545AB747D017F098048E570
:1001400075C454F0FFE546540F4FF546AB747D017E
:100150007F0B8033E54654F04575F546AB747D0161
:100160007F0C8023E575C454F0FFE547540F4FF52D
:1001700047AB747D017F0E800EE54754F04575F561
:0D01800047AB747D017F0F12123112062F64
:01018D00224F
:10083400020797E493A3F8E493A34003F68001F23C
:1008440008DFF48029E493A3F85407240CC8C333C5
:10085400C4540F4420C8834004F456800146F6DF94
:10086400E4800B0102040810204080901122E47EF1
:10087400019360BCA3FF543F30E509541FFEE49389
:10088400A360010ECF54C025E060A840B8E493A350
:10089400FAE493A3F8E493A3C8C582C8CAC583CA7B
:1008A400F0A3C8C582C8CAC583CADFE9DEE780BE33
:01113F0000AF
:10018E00BB010689828A83E0225002E722BBFE026F
:09019E00E32289828A83E49322A2
:1001A700BB010CE58229F582E5833AF583E022500D
:1001B70006E92582F8E622BBFE06E92582F8E22257
:0D01C700E58229F582E5833AF583E4932271
:1001D400BB010689828A83F0225002F722BBFE010A
:0201E400F32204
:1001E600F8BB010DE58229F582E5833AF583E8F04F
:1001F600225006E92582C8F622BBFE05E92582C8FB
:02020600F222E2
:10020800C2D5EC30E709B2D5E4C39DFDE49CFCEE11
:1002180030E715B2D5E4C39FFFE49EFE120299C3EE
:10022800E49DFDE49CFC800312029930D507C3E4E9
:060238009FFFE49EFE2280
:10023E00BB010A89828A83E0F5F0A3E0225006878B
:10024E00F009E71922BBFE07E3F5F009E31922894D
:0B025E00828A83E493F5F07401932280
:10026900BB010A89828A83F0E5F0A3F0225006F7E0
:0F02790009A7F01922BBFE06F3E5F009F31922DD
:10028800EB9FF5F0EA9E42F0E99D42F0E89C45F0CC
:010298002243
:10029900BC000BBE0029EF8DF084FFADF022E4CC49
:1002A900F875F008EF2FFFEE33FEEC33FCEE9DEC12
:1002B900984005FCEE9DFE0FD5F0E9E4CEFD22ED58
:1002C900F8F5F0EE8420D21CFEADF075F008EF2FA2
:1002D900FFED33FD4007985006D5F0F222C398FD93
:0502E9000FD5F0EA2230
:00000001FF
